{
  "_format": "hh-sol-artifact-1",
  "contractName": "EoaBond",
  "sourceName": "contracts/EoaBond.sol",
  "abi": [
    {
      "inputs": [],
      "stateMutability": "nonpayable",
      "type": "constructor"
    },
    {
      "anonymous": false,
      "inputs": [
        {
          "indexed": false,
          "internalType": "uint256",
          "name": "policyId",
          "type": "uint256"
        },
        {
          "indexed": false,
          "internalType": "address",
          "name": "allowedAddress",
          "type": "address"
        }
      ],
      "name": "AddressAddedToPolicy",
      "type": "event"
    },
    {
      "anonymous": false,
      "inputs": [
        {
          "indexed": false,
          "internalType": "address",
          "name": "mainEoa",
          "type": "address"
        },
        {
          "indexed": false,
          "internalType": "address",
          "name": "apiEoa",
          "type": "address"
        }
      ],
      "name": "Bond",
      "type": "event"
    },
    {
      "anonymous": false,
      "inputs": [
        {
          "indexed": false,
          "internalType": "uint256",
          "name": "bucketId",
          "type": "uint256"
        },
        {
          "indexed": false,
          "internalType": "address",
          "name": "owner",
          "type": "address"
        }
      ],
      "name": "BucketAdded",
      "type": "event"
    },
    {
      "anonymous": false,
      "inputs": [
        {
          "indexed": false,
          "internalType": "uint256",
          "name": "bucketId",
          "type": "uint256"
        }
      ],
      "name": "BucketDeactivated",
      "type": "event"
    },
    {
      "anonymous": false,
      "inputs": [
        {
          "indexed": false,
          "internalType": "address",
          "name": "mainEoa",
          "type": "address"
        }
      ],
      "name": "Detach",
      "type": "event"
    },
    {
      "anonymous": false,
      "inputs": [
        {
          "indexed": false,
          "internalType": "uint8",
          "name": "version",
          "type": "uint8"
        }
      ],
      "name": "Initialized",
      "type": "event"
    },
    {
      "anonymous": false,
      "inputs": [
        {
          "indexed": false,
          "internalType": "uint256",
          "name": "policyId",
          "type": "uint256"
        },
        {
          "indexed": false,
          "internalType": "address",
          "name": "owner",
          "type": "address"
        }
      ],
      "name": "PolicyAdded",
      "type": "event"
    },
    {
      "anonymous": false,
      "inputs": [
        {
          "indexed": false,
          "internalType": "uint256",
          "name": "bucketId",
          "type": "uint256"
        },
        {
          "indexed": false,
          "internalType": "uint256",
          "name": "policyId",
          "type": "uint256"
        }
      ],
      "name": "PolicyAddedToBucket",
      "type": "event"
    },
    {
      "anonymous": false,
      "inputs": [
        {
          "indexed": false,
          "internalType": "uint256",
          "name": "policyId",
          "type": "uint256"
        }
      ],
      "name": "PolicyDeactivated",
      "type": "event"
    },
    {
      "anonymous": false,
      "inputs": [
        {
          "indexed": true,
          "internalType": "bytes32",
          "name": "role",
          "type": "bytes32"
        },
        {
          "indexed": true,
          "internalType": "bytes32",
          "name": "previousAdminRole",
          "type": "bytes32"
        },
        {
          "indexed": true,
          "internalType": "bytes32",
          "name": "newAdminRole",
          "type": "bytes32"
        }
      ],
      "name": "RoleAdminChanged",
      "type": "event"
    },
    {
      "anonymous": false,
      "inputs": [
        {
          "indexed": true,
          "internalType": "bytes32",
          "name": "role",
          "type": "bytes32"
        },
        {
          "indexed": true,
          "internalType": "address",
          "name": "account",
          "type": "address"
        },
        {
          "indexed": true,
          "internalType": "address",
          "name": "sender",
          "type": "address"
        }
      ],
      "name": "RoleGranted",
      "type": "event"
    },
    {
      "anonymous": false,
      "inputs": [
        {
          "indexed": true,
          "internalType": "bytes32",
          "name": "role",
          "type": "bytes32"
        },
        {
          "indexed": true,
          "internalType": "address",
          "name": "account",
          "type": "address"
        },
        {
          "indexed": true,
          "internalType": "address",
          "name": "sender",
          "type": "address"
        }
      ],
      "name": "RoleRevoked",
      "type": "event"
    },
    {
      "inputs": [],
      "name": "DEFAULT_ADMIN_ROLE",
      "outputs": [
        {
          "internalType": "bytes32",
          "name": "",
          "type": "bytes32"
        }
      ],
      "stateMutability": "view",
      "type": "function"
    },
    {
      "inputs": [
        {
          "internalType": "uint256",
          "name": "policyId",
          "type": "uint256"
        },
        {
          "internalType": "address",
          "name": "allowedAddress",
          "type": "address"
        }
      ],
      "name": "addAllowedAddressToPolicy",
      "outputs": [],
      "stateMutability": "nonpayable",
      "type": "function"
    },
    {
      "inputs": [
        {
          "internalType": "uint256",
          "name": "bucketId",
          "type": "uint256"
        },
        {
          "internalType": "uint256[]",
          "name": "policyIds",
          "type": "uint256[]"
        },
        {
          "internalType": "string",
          "name": "dataFormat",
          "type": "string"
        },
        {
          "internalType": "string",
          "name": "nodeAddress",
          "type": "string"
        }
      ],
      "name": "addBucket",
      "outputs": [],
      "stateMutability": "nonpayable",
      "type": "function"
    },
    {
      "inputs": [
        {
          "internalType": "uint256",
          "name": "policyId",
          "type": "uint256"
        },
        {
          "internalType": "string[]",
          "name": "allowedCategories",
          "type": "string[]"
        },
        {
          "internalType": "address[]",
          "name": "allowedAddresses",
          "type": "address[]"
        },
        {
          "internalType": "string[]",
          "name": "allowedColumns",
          "type": "string[]"
        },
        {
          "internalType": "uint256",
          "name": "expDate",
          "type": "uint256"
        },
        {
          "internalType": "uint256",
          "name": "price",
          "type": "uint256"
        }
      ],
      "name": "addPolicy",
      "outputs": [],
      "stateMutability": "nonpayable",
      "type": "function"
    },
    {
      "inputs": [
        {
          "internalType": "uint256",
          "name": "bucketId",
          "type": "uint256"
        },
        {
          "internalType": "uint256",
          "name": "policyId",
          "type": "uint256"
        }
      ],
      "name": "addPolicyToBucket",
      "outputs": [],
      "stateMutability": "nonpayable",
      "type": "function"
    },
    {
      "inputs": [
        {
          "internalType": "address",
          "name": "",
          "type": "address"
        }
      ],
      "name": "apiEoas",
      "outputs": [
        {
          "internalType": "address",
          "name": "",
          "type": "address"
        }
      ],
      "stateMutability": "view",
      "type": "function"
    },
    {
      "inputs": [
        {
          "internalType": "address",
          "name": "apiEoa",
          "type": "address"
        }
      ],
      "name": "bond",
      "outputs": [],
      "stateMutability": "nonpayable",
      "type": "function"
    },
    {
      "inputs": [
        {
          "internalType": "uint256",
          "name": "",
          "type": "uint256"
        }
      ],
      "name": "buckets",
      "outputs": [
        {
          "internalType": "string",
          "name": "dataFormat",
          "type": "string"
        },
        {
          "internalType": "string",
          "name": "nodeAddress",
          "type": "string"
        },
        {
          "internalType": "address",
          "name": "owner",
          "type": "address"
        },
        {
          "internalType": "bool",
          "name": "deactivated",
          "type": "bool"
        }
      ],
      "stateMutability": "view",
      "type": "function"
    },
    {
      "inputs": [
        {
          "internalType": "address",
          "name": "",
          "type": "address"
        }
      ],
      "name": "dataProviders",
      "outputs": [
        {
          "internalType": "uint256",
          "name": "joinDate",
          "type": "uint256"
        },
        {
          "internalType": "string",
          "name": "category",
          "type": "string"
        }
      ],
      "stateMutability": "view",
      "type": "function"
    },
    {
      "inputs": [
        {
          "internalType": "address",
          "name": "",
          "type": "address"
        }
      ],
      "name": "dataSeekers",
      "outputs": [
        {
          "internalType": "uint256",
          "name": "joinDate",
          "type": "uint256"
        },
        {
          "internalType": "string",
          "name": "category",
          "type": "string"
        }
      ],
      "stateMutability": "view",
      "type": "function"
    },
    {
      "inputs": [
        {
          "internalType": "uint256",
          "name": "bucketId",
          "type": "uint256"
        }
      ],
      "name": "deactivateBucket",
      "outputs": [],
      "stateMutability": "nonpayable",
      "type": "function"
    },
    {
      "inputs": [
        {
          "internalType": "uint256",
          "name": "policyId",
          "type": "uint256"
        }
      ],
      "name": "deactivatePolicy",
      "outputs": [],
      "stateMutability": "nonpayable",
      "type": "function"
    },
    {
      "inputs": [],
      "name": "detach",
      "outputs": [],
      "stateMutability": "nonpayable",
      "type": "function"
    },
    {
      "inputs": [
        {
          "internalType": "uint256",
          "name": "policyId",
          "type": "uint256"
        }
      ],
      "name": "getAllowedAddresses",
      "outputs": [
        {
          "internalType": "address[]",
          "name": "",
          "type": "address[]"
        }
      ],
      "stateMutability": "view",
      "type": "function"
    },
    {
      "inputs": [
        {
          "internalType": "uint256",
          "name": "policyId",
          "type": "uint256"
        }
      ],
      "name": "getAllowedCategories",
      "outputs": [
        {
          "internalType": "string[]",
          "name": "",
          "type": "string[]"
        }
      ],
      "stateMutability": "view",
      "type": "function"
    },
    {
      "inputs": [
        {
          "internalType": "uint256",
          "name": "policyId",
          "type": "uint256"
        }
      ],
      "name": "getAllowedColumns",
      "outputs": [
        {
          "internalType": "string[]",
          "name": "",
          "type": "string[]"
        }
      ],
      "stateMutability": "view",
      "type": "function"
    },
    {
      "inputs": [
        {
          "internalType": "uint256",
          "name": "bucketId",
          "type": "uint256"
        }
      ],
      "name": "getPolicyIds",
      "outputs": [
        {
          "internalType": "uint256[]",
          "name": "",
          "type": "uint256[]"
        }
      ],
      "stateMutability": "view",
      "type": "function"
    },
    {
      "inputs": [
        {
          "internalType": "bytes32",
          "name": "role",
          "type": "bytes32"
        }
      ],
      "name": "getRoleAdmin",
      "outputs": [
        {
          "internalType": "bytes32",
          "name": "",
          "type": "bytes32"
        }
      ],
      "stateMutability": "view",
      "type": "function"
    },
    {
      "inputs": [
        {
          "internalType": "bytes32",
          "name": "role",
          "type": "bytes32"
        },
        {
          "internalType": "address",
          "name": "account",
          "type": "address"
        }
      ],
      "name": "grantRole",
      "outputs": [],
      "stateMutability": "nonpayable",
      "type": "function"
    },
    {
      "inputs": [
        {
          "internalType": "bytes32",
          "name": "role",
          "type": "bytes32"
        },
        {
          "internalType": "address",
          "name": "account",
          "type": "address"
        }
      ],
      "name": "hasRole",
      "outputs": [
        {
          "internalType": "bool",
          "name": "",
          "type": "bool"
        }
      ],
      "stateMutability": "view",
      "type": "function"
    },
    {
      "inputs": [],
      "name": "initialize",
      "outputs": [],
      "stateMutability": "nonpayable",
      "type": "function"
    },
    {
      "inputs": [
        {
          "internalType": "address",
          "name": "a",
          "type": "address"
        }
      ],
      "name": "mainAccount",
      "outputs": [
        {
          "internalType": "address",
          "name": "",
          "type": "address"
        }
      ],
      "stateMutability": "view",
      "type": "function"
    },
    {
      "inputs": [
        {
          "internalType": "address",
          "name": "",
          "type": "address"
        }
      ],
      "name": "mainEoas",
      "outputs": [
        {
          "internalType": "address",
          "name": "",
          "type": "address"
        }
      ],
      "stateMutability": "view",
      "type": "function"
    },
    {
      "inputs": [
        {
          "internalType": "address",
          "name": "",
          "type": "address"
        },
        {
          "internalType": "uint256",
          "name": "",
          "type": "uint256"
        }
      ],
      "name": "ownerBucketIds",
      "outputs": [
        {
          "internalType": "uint256",
          "name": "",
          "type": "uint256"
        }
      ],
      "stateMutability": "view",
      "type": "function"
    },
    {
      "inputs": [
        {
          "internalType": "address",
          "name": "",
          "type": "address"
        },
        {
          "internalType": "uint256",
          "name": "",
          "type": "uint256"
        }
      ],
      "name": "ownerPolicyIds",
      "outputs": [
        {
          "internalType": "uint256",
          "name": "",
          "type": "uint256"
        }
      ],
      "stateMutability": "view",
      "type": "function"
    },
    {
      "inputs": [
        {
          "internalType": "uint256",
          "name": "",
          "type": "uint256"
        }
      ],
      "name": "policies",
      "outputs": [
        {
          "internalType": "uint256",
          "name": "expDate",
          "type": "uint256"
        },
        {
          "internalType": "uint256",
          "name": "price",
          "type": "uint256"
        },
        {
          "internalType": "address",
          "name": "owner",
          "type": "address"
        },
        {
          "internalType": "bool",
          "name": "deactivated",
          "type": "bool"
        }
      ],
      "stateMutability": "view",
      "type": "function"
    },
    {
      "inputs": [
        {
          "internalType": "bytes32",
          "name": "role",
          "type": "bytes32"
        },
        {
          "internalType": "address",
          "name": "account",
          "type": "address"
        }
      ],
      "name": "renounceRole",
      "outputs": [],
      "stateMutability": "nonpayable",
      "type": "function"
    },
    {
      "inputs": [
        {
          "internalType": "bytes32",
          "name": "role",
          "type": "bytes32"
        },
        {
          "internalType": "address",
          "name": "account",
          "type": "address"
        }
      ],
      "name": "revokeRole",
      "outputs": [],
      "stateMutability": "nonpayable",
      "type": "function"
    },
    {
      "inputs": [
        {
          "internalType": "address",
          "name": "dpAddr",
          "type": "address"
        },
        {
          "internalType": "string",
          "name": "category",
          "type": "string"
        }
      ],
      "name": "setDataProvider",
      "outputs": [],
      "stateMutability": "nonpayable",
      "type": "function"
    },
    {
      "inputs": [
        {
          "internalType": "address",
          "name": "dsAddr",
          "type": "address"
        },
        {
          "internalType": "string",
          "name": "category",
          "type": "string"
        }
      ],
      "name": "setDataSeeker",
      "outputs": [],
      "stateMutability": "nonpayable",
      "type": "function"
    },
    {
      "inputs": [
        {
          "internalType": "bytes4",
          "name": "interfaceId",
          "type": "bytes4"
        }
      ],
      "name": "supportsInterface",
      "outputs": [
        {
          "internalType": "bool",
          "name": "",
          "type": "bool"
        }
      ],
      "stateMutability": "view",
      "type": "function"
    }
  ],
  "bytecode": "0x60806040523480156200001157600080fd5b50620000226200002860201b60201c565b620001d2565b600060019054906101000a900460ff16156200007b576040517f08c379a0000000000000000000000000000000000000000000000000000000008152600401620000729062000175565b60405180910390fd5b60ff801660008054906101000a900460ff1660ff1614620000ec5760ff6000806101000a81548160ff021916908360ff1602179055507f7f26b83ff96e1f2b6a682f133852f6798a09c465da95921460cefb384740249860ff604051620000e39190620001b5565b60405180910390a15b565b600082825260208201905092915050565b7f496e697469616c697a61626c653a20636f6e747261637420697320696e69746960008201527f616c697a696e6700000000000000000000000000000000000000000000000000602082015250565b60006200015d602783620000ee565b91506200016a82620000ff565b604082019050919050565b6000602082019050818103600083015262000190816200014e565b9050919050565b600060ff82169050919050565b620001af8162000197565b82525050565b6000602082019050620001cc6000830184620001a4565b92915050565b61457b80620001e26000396000f3fe608060405234801561001057600080fd5b50600436106101e45760003560e01c8063854e7cb31161010f578063afa245b4116100a2578063de92695a11610071578063de92695a146105db578063ded7f4ae1461060b578063eb4a46451461063b578063fde37aee14610657576101e4565b8063afa245b41461052c578063d2c8257a1461055c578063d3e894831461058c578063d547741f146105bf576101e4565b806396c78fb4116100de57806396c78fb4146104a35780639b51fb0d146104bf578063a0f82994146104f2578063a217fddf1461050e576101e4565b8063854e7cb3146103f75780638897f045146104275780638d8e8e3c1461044357806391d1485414610473576101e4565b806336568abe116101875780636f22aa70116101565780636f22aa701461035c578063780aac031461038c578063796d749b146103bd5780638129fc1c146103ed576101e4565b806336568abe146102d757806336998de8146102f35780635773d1801461030f5780635efb538a14610340576101e4565b8063225435c0116101c3578063225435c014610265578063247ce85b1461026f578063248a9ca31461028b5780632f2ff15d146102bb576101e4565b806225606f146101e957806301ffc9a714610219578063118f124914610249575b600080fd5b61020360048036038101906101fe9190612b83565b610673565b6040516102109190612bbf565b60405180910390f35b610233600480360381019061022e9190612c32565b6106a6565b6040516102409190612c7a565b60405180910390f35b610263600480360381019061025e9190612ccb565b610720565b005b61026d610829565b005b61028960048036038101906102849190612b83565b6109bf565b005b6102a560048036038101906102a09190612d2e565b610e2f565b6040516102b29190612d6a565b60405180910390f35b6102d560048036038101906102d09190612d85565b610e4f565b005b6102f160048036038101906102ec9190612d85565b610e70565b005b61030d60048036038101906103089190612e80565b610ef3565b005b61032960048036038101906103249190612b83565b611115565b604051610337929190612fe8565b60405180910390f35b61035a60048036038101906103559190613018565b6111c1565b005b61037660048036038101906103719190612b83565b61132d565b6040516103839190612bbf565b60405180910390f35b6103a660048036038101906103a19190612b83565b611360565b6040516103b4929190612fe8565b60405180910390f35b6103d760048036038101906103d29190612b83565b61140c565b6040516103e49190612bbf565b60405180910390f35b6103f5611510565b005b610411600480360381019061040c9190612ccb565b611663565b60405161041e9190613164565b60405180910390f35b610441600480360381019061043c9190613186565b611752565b005b61045d600480360381019061045891906131e6565b611849565b60405161046a9190613226565b60405180910390f35b61048d60048036038101906104889190612d85565b61187a565b60405161049a9190612c7a565b60405180910390f35b6104bd60048036038101906104b89190613241565b6118e5565b005b6104d960048036038101906104d49190612ccb565b611a8b565b6040516104e99493929190613281565b60405180910390f35b61050c60048036038101906105079190613186565b611bf8565b005b610516611cef565b6040516105239190612d6a565b60405180910390f35b610546600480360381019061054191906131e6565b611cf6565b6040516105539190613226565b60405180910390f35b61057660048036038101906105719190612ccb565b611d27565b6040516105839190613392565b60405180910390f35b6105a660048036038101906105a19190612ccb565b611d95565b6040516105b694939291906133b4565b60405180910390f35b6105d960048036038101906105d49190612d85565b611df2565b005b6105f560048036038101906105f09190612ccb565b611e13565b6040516106029190613164565b60405180910390f35b61062560048036038101906106209190612ccb565b611f02565b60405161063291906134b7565b60405180910390f35b61065560048036038101906106509190612ccb565b611fa6565b005b610671600480360381019061066c9190613740565b6120af565b005b60c96020528060005260406000206000915054906101000a900473ffffffffffffffffffffffffffffffffffffffff1681565b60007f7965db0b000000000000000000000000000000000000000000000000000000007bffffffffffffffffffffffffffffffffffffffffffffffffffffffff1916827bffffffffffffffffffffffffffffffffffffffffffffffffffffffff191614806107195750610718826122ed565b5b9050919050565b600060ce600083815260200190815260200160002090506107403361140c565b73ffffffffffffffffffffffffffffffffffffffff168160030160009054906101000a900473ffffffffffffffffffffffffffffffffffffffff1673ffffffffffffffffffffffffffffffffffffffff16146107d1576040517f08c379a00000000000000000000000000000000000000000000000000000000081526004016107c890613873565b60405180910390fd5b60018160030160146101000a81548160ff0219169083151502179055507f3002681acd76b745f42970dd6c00cd7a2f96c2de284fdfd06e0f8fb11296f6508260405161081d9190613226565b60405180910390a15050565b600060ca600060c960003373ffffffffffffffffffffffffffffffffffffffff1673ffffffffffffffffffffffffffffffffffffffff16815260200190815260200160002060009054906101000a900473ffffffffffffffffffffffffffffffffffffffff1673ffffffffffffffffffffffffffffffffffffffff1673ffffffffffffffffffffffffffffffffffffffff16815260200190815260200160002060006101000a81548173ffffffffffffffffffffffffffffffffffffffff021916908373ffffffffffffffffffffffffffffffffffffffff160217905550600060c960003373ffffffffffffffffffffffffffffffffffffffff1673ffffffffffffffffffffffffffffffffffffffff16815260200190815260200160002060006101000a81548173ffffffffffffffffffffffffffffffffffffffff021916908373ffffffffffffffffffffffffffffffffffffffff1602179055507fc4334c4bd536e76bf4341972a09af796d8fd3c7336b1a827427f6c0b52b66202336040516109b59190612bbf565b60405180910390a1565b600073ffffffffffffffffffffffffffffffffffffffff1660c960003373ffffffffffffffffffffffffffffffffffffffff1673ffffffffffffffffffffffffffffffffffffffff16815260200190815260200160002060009054906101000a900473ffffffffffffffffffffffffffffffffffffffff1673ffffffffffffffffffffffffffffffffffffffff1614610a8d576040517f08c379a0000000000000000000000000000000000000000000000000000000008152600401610a84906138df565b60405180910390fd5b600073ffffffffffffffffffffffffffffffffffffffff1660ca60008373ffffffffffffffffffffffffffffffffffffffff1673ffffffffffffffffffffffffffffffffffffffff16815260200190815260200160002060009054906101000a900473ffffffffffffffffffffffffffffffffffffffff1673ffffffffffffffffffffffffffffffffffffffff1614610b5b576040517f08c379a0000000000000000000000000000000000000000000000000000000008152600401610b529061394b565b60405180910390fd5b8060c960003373ffffffffffffffffffffffffffffffffffffffff1673ffffffffffffffffffffffffffffffffffffffff16815260200190815260200160002060006101000a81548173ffffffffffffffffffffffffffffffffffffffff021916908373ffffffffffffffffffffffffffffffffffffffff1602179055503360ca60008373ffffffffffffffffffffffffffffffffffffffff1673ffffffffffffffffffffffffffffffffffffffff16815260200190815260200160002060006101000a81548173ffffffffffffffffffffffffffffffffffffffff021916908373ffffffffffffffffffffffffffffffffffffffff160217905550600073ffffffffffffffffffffffffffffffffffffffff1660c960008373ffffffffffffffffffffffffffffffffffffffff1673ffffffffffffffffffffffffffffffffffffffff16815260200190815260200160002060009054906101000a900473ffffffffffffffffffffffffffffffffffffffff1673ffffffffffffffffffffffffffffffffffffffff1614610d25576040517f08c379a0000000000000000000000000000000000000000000000000000000008152600401610d1c906139b7565b60405180910390fd5b600073ffffffffffffffffffffffffffffffffffffffff1660ca60003373ffffffffffffffffffffffffffffffffffffffff1673ffffffffffffffffffffffffffffffffffffffff16815260200190815260200160002060009054906101000a900473ffffffffffffffffffffffffffffffffffffffff1673ffffffffffffffffffffffffffffffffffffffff1614610df3576040517f08c379a0000000000000000000000000000000000000000000000000000000008152600401610dea90613a23565b60405180910390fd5b7f926f98e4b543897a75b3e34b7494ba68a47829d3aa39ffd9c478ccc51bfbfb443382604051610e24929190613a43565b60405180910390a150565b600060656000838152602001908152602001600020600101549050919050565b610e5882610e2f565b610e6181612357565b610e6b838361236b565b505050565b610e7861244c565b73ffffffffffffffffffffffffffffffffffffffff168173ffffffffffffffffffffffffffffffffffffffff1614610ee5576040517f08c379a0000000000000000000000000000000000000000000000000000000008152600401610edc90613ade565b60405180910390fd5b610eef8282612454565b5050565b600060ce60008981526020019081526020016000209050600073ffffffffffffffffffffffffffffffffffffffff168160030160009054906101000a900473ffffffffffffffffffffffffffffffffffffffff1673ffffffffffffffffffffffffffffffffffffffff1614610f9d576040517f08c379a0000000000000000000000000000000000000000000000000000000008152600401610f9490613b4a565b60405180910390fd5b8686826000019190610fb092919061294a565b508484826001019182610fc4929190613d81565b508282826002019182610fd8929190613d81565b50610fe23361140c565b8160030160006101000a81548173ffffffffffffffffffffffffffffffffffffffff021916908373ffffffffffffffffffffffffffffffffffffffff16021790555060cf60008260030160009054906101000a900473ffffffffffffffffffffffffffffffffffffffff1673ffffffffffffffffffffffffffffffffffffffff1673ffffffffffffffffffffffffffffffffffffffff1681526020019081526020016000208890806001815401808255809150506001900390600052602060002001600090919091909150557fe737a3ee8520887c4018b97f640958f8a2ad13444ab4ff075956b54ca1251684888260030160009054906101000a900473ffffffffffffffffffffffffffffffffffffffff16604051611103929190613e51565b60405180910390a15050505050505050565b60cc60205280600052604060002060009150905080600001549080600101805461113e90613ba4565b80601f016020809104026020016040519081016040528092919081815260200182805461116a90613ba4565b80156111b75780601f1061118c576101008083540402835291602001916111b7565b820191906000526020600020905b81548152906001019060200180831161119a57829003601f168201915b5050505050905082565b600060ce600084815260200190815260200160002090506111e13361140c565b73ffffffffffffffffffffffffffffffffffffffff168160030160009054906101000a900473ffffffffffffffffffffffffffffffffffffffff1673ffffffffffffffffffffffffffffffffffffffff1614611272576040517f08c379a000000000000000000000000000000000000000000000000000000000815260040161126990613873565b60405180910390fd5b8060030160149054906101000a900460ff16156112c4576040517f08c379a00000000000000000000000000000000000000000000000000000000081526004016112bb90613ec6565b60405180910390fd5b806000018290806001815401808255809150506001900390600052602060002001600090919091909150557f97fd0f78540a5bcd5a6b6af3e260ab088b75e70678c3768ba048e94d701531b38383604051611320929190613ee6565b60405180910390a1505050565b60ca6020528060005260406000206000915054906101000a900473ffffffffffffffffffffffffffffffffffffffff1681565b60cb60205280600052604060002060009150905080600001549080600101805461138990613ba4565b80601f01602080910402602001604051908101604052809291908181526020018280546113b590613ba4565b80156114025780601f106113d757610100808354040283529160200191611402565b820191906000526020600020905b8154815290600101906020018083116113e557829003601f168201915b5050505050905082565b60008073ffffffffffffffffffffffffffffffffffffffff1660ca60008473ffffffffffffffffffffffffffffffffffffffff1673ffffffffffffffffffffffffffffffffffffffff16815260200190815260200160002060009054906101000a900473ffffffffffffffffffffffffffffffffffffffff1673ffffffffffffffffffffffffffffffffffffffff16036114a85781905061150b565b60ca60008373ffffffffffffffffffffffffffffffffffffffff1673ffffffffffffffffffffffffffffffffffffffff16815260200190815260200160002060009054906101000a900473ffffffffffffffffffffffffffffffffffffffff1690505b919050565b60008060019054906101000a900460ff161590508080156115415750600160008054906101000a900460ff1660ff16105b8061156e575061155030612536565b15801561156d5750600160008054906101000a900460ff1660ff16145b5b6115ad576040517f08c379a00000000000000000000000000000000000000000000000000000000081526004016115a490613f81565b60405180910390fd5b60016000806101000a81548160ff021916908360ff16021790555080156115ea576001600060016101000a81548160ff0219169083151502179055505b6115f2612559565b6115fa6125b2565b6116076000801b3361236b565b80156116605760008060016101000a81548160ff0219169083151502179055507f7f26b83ff96e1f2b6a682f133852f6798a09c465da95921460cefb384740249860016040516116579190613fe9565b60405180910390a15b50565b606060cd6000838152602001908152602001600020600001805480602002602001604051908101604052809291908181526020016000905b828210156117475783829060005260206000200180546116ba90613ba4565b80601f01602080910402602001604051908101604052809291908181526020018280546116e690613ba4565b80156117335780601f1061170857610100808354040283529160200191611733565b820191906000526020600020905b81548152906001019060200180831161171657829003601f168201915b50505050508152602001906001019061169b565b505050509050919050565b6000801b61175f81612357565b600060cb60008673ffffffffffffffffffffffffffffffffffffffff1673ffffffffffffffffffffffffffffffffffffffff16815260200190815260200160002060000154036117f1574260cb60008673ffffffffffffffffffffffffffffffffffffffff1673ffffffffffffffffffffffffffffffffffffffff168152602001908152602001600020600001819055505b828260cb60008773ffffffffffffffffffffffffffffffffffffffff1673ffffffffffffffffffffffffffffffffffffffff1681526020019081526020016000206001019182611842929190613d81565b5050505050565b60cf602052816000526040600020818154811061186557600080fd5b90600052602060002001600091509150505481565b60006065600084815260200190815260200160002060000160008373ffffffffffffffffffffffffffffffffffffffff1673ffffffffffffffffffffffffffffffffffffffff16815260200190815260200160002060009054906101000a900460ff16905092915050565b600060cd600084815260200190815260200160002090506119053361140c565b73ffffffffffffffffffffffffffffffffffffffff168160050160009054906101000a900473ffffffffffffffffffffffffffffffffffffffff1673ffffffffffffffffffffffffffffffffffffffff1614611996576040517f08c379a000000000000000000000000000000000000000000000000000000000815260040161198d90614050565b60405180910390fd5b8060050160149054906101000a900460ff16156119e8576040517f08c379a00000000000000000000000000000000000000000000000000000000081526004016119df906140bc565b60405180910390fd5b80600101829080600181540180825580915050600190039060005260206000200160009091909190916101000a81548173ffffffffffffffffffffffffffffffffffffffff021916908373ffffffffffffffffffffffffffffffffffffffff1602179055507f9c36476ec530d5b4024edee8143f1fc33550a1ad216d2e678245eb458edcd16c8383604051611a7e929190613e51565b60405180910390a1505050565b60ce602052806000526040600020600091509050806001018054611aae90613ba4565b80601f0160208091040260200160405190810160405280929190818152602001828054611ada90613ba4565b8015611b275780601f10611afc57610100808354040283529160200191611b27565b820191906000526020600020905b815481529060010190602001808311611b0a57829003601f168201915b505050505090806002018054611b3c90613ba4565b80601f0160208091040260200160405190810160405280929190818152602001828054611b6890613ba4565b8015611bb55780601f10611b8a57610100808354040283529160200191611bb5565b820191906000526020600020905b815481529060010190602001808311611b9857829003601f168201915b5050505050908060030160009054906101000a900473ffffffffffffffffffffffffffffffffffffffff16908060030160149054906101000a900460ff16905084565b6000801b611c0581612357565b600060cc60008673ffffffffffffffffffffffffffffffffffffffff1673ffffffffffffffffffffffffffffffffffffffff1681526020019081526020016000206000015403611c97574260cc60008673ffffffffffffffffffffffffffffffffffffffff1673ffffffffffffffffffffffffffffffffffffffff168152602001908152602001600020600001819055505b828260cc60008773ffffffffffffffffffffffffffffffffffffffff1673ffffffffffffffffffffffffffffffffffffffff1681526020019081526020016000206001019182611ce8929190613d81565b5050505050565b6000801b81565b60d06020528160005260406000208181548110611d1257600080fd5b90600052602060002001600091509150505481565b606060ce6000838152602001908152602001600020600001805480602002602001604051908101604052809291908181526020018280548015611d8957602002820191906000526020600020905b815481526020019060010190808311611d75575b50505050509050919050565b60cd6020528060005260406000206000915090508060030154908060040154908060050160009054906101000a900473ffffffffffffffffffffffffffffffffffffffff16908060050160149054906101000a900460ff16905084565b611dfb82610e2f565b611e0481612357565b611e0e8383612454565b505050565b606060cd6000838152602001908152602001600020600201805480602002602001604051908101604052809291908181526020016000905b82821015611ef7578382906000526020600020018054611e6a90613ba4565b80601f0160208091040260200160405190810160405280929190818152602001828054611e9690613ba4565b8015611ee35780601f10611eb857610100808354040283529160200191611ee3565b820191906000526020600020905b815481529060010190602001808311611ec657829003601f168201915b505050505081526020019060010190611e4b565b505050509050919050565b606060cd6000838152602001908152602001600020600101805480602002602001604051908101604052809291908181526020018280548015611f9a57602002820191906000526020600020905b8160009054906101000a900473ffffffffffffffffffffffffffffffffffffffff1673ffffffffffffffffffffffffffffffffffffffff1681526020019060010190808311611f50575b50505050509050919050565b600060cd60008381526020019081526020016000209050611fc63361140c565b73ffffffffffffffffffffffffffffffffffffffff168160050160009054906101000a900473ffffffffffffffffffffffffffffffffffffffff1673ffffffffffffffffffffffffffffffffffffffff1614612057576040517f08c379a000000000000000000000000000000000000000000000000000000000815260040161204e90614050565b60405180910390fd5b60018160050160146101000a81548160ff0219169083151502179055507fa040c05c2aea9ad7da426cefbf383fc472d4759806d4aa7d1257f00f0faadd01826040516120a39190613226565b60405180910390a15050565b600060cd60008981526020019081526020016000209050600073ffffffffffffffffffffffffffffffffffffffff168160050160009054906101000a900473ffffffffffffffffffffffffffffffffffffffff1673ffffffffffffffffffffffffffffffffffffffff1614612159576040517f08c379a000000000000000000000000000000000000000000000000000000000815260040161215090614128565b60405180910390fd5b86816000019080519060200190612171929190612997565b5085858260010191906121859291906129f0565b508381600201908051906020019061219e929190612997565b508281600301819055508181600401819055506121ba3361140c565b8160050160006101000a81548173ffffffffffffffffffffffffffffffffffffffff021916908373ffffffffffffffffffffffffffffffffffffffff16021790555060d060008260050160009054906101000a900473ffffffffffffffffffffffffffffffffffffffff1673ffffffffffffffffffffffffffffffffffffffff1673ffffffffffffffffffffffffffffffffffffffff1681526020019081526020016000208890806001815401808255809150506001900390600052602060002001600090919091909150557f977367dcdd13b45f9ddcc1b0b549054231eee20e8e2795185f2448336a194146888260050160009054906101000a900473ffffffffffffffffffffffffffffffffffffffff166040516122db929190613e51565b60405180910390a15050505050505050565b60007f01ffc9a7000000000000000000000000000000000000000000000000000000007bffffffffffffffffffffffffffffffffffffffffffffffffffffffff1916827bffffffffffffffffffffffffffffffffffffffffffffffffffffffff1916149050919050565b6123688161236361244c565b612603565b50565b612375828261187a565b6124485760016065600084815260200190815260200160002060000160008373ffffffffffffffffffffffffffffffffffffffff1673ffffffffffffffffffffffffffffffffffffffff16815260200190815260200160002060006101000a81548160ff0219169083151502179055506123ed61244c565b73ffffffffffffffffffffffffffffffffffffffff168173ffffffffffffffffffffffffffffffffffffffff16837f2f8788117e7eff1d82e926ec794901d17c78024a50270940304540a733656f0d60405160405180910390a45b5050565b600033905090565b61245e828261187a565b156125325760006065600084815260200190815260200160002060000160008373ffffffffffffffffffffffffffffffffffffffff1673ffffffffffffffffffffffffffffffffffffffff16815260200190815260200160002060006101000a81548160ff0219169083151502179055506124d761244c565b73ffffffffffffffffffffffffffffffffffffffff168173ffffffffffffffffffffffffffffffffffffffff16837ff6391f5c32d9c69d2a47ea670b442974b53935d1edc7fd64eb21e047a839171b60405160405180910390a45b5050565b6000808273ffffffffffffffffffffffffffffffffffffffff163b119050919050565b600060019054906101000a900460ff166125a8576040517f08c379a000000000000000000000000000000000000000000000000000000000815260040161259f906141ba565b60405180910390fd5b6125b0612688565b565b600060019054906101000a900460ff16612601576040517f08c379a00000000000000000000000000000000000000000000000000000000081526004016125f8906141ba565b60405180910390fd5b565b61260d828261187a565b6126845761261a816126e1565b6126288360001c602061270e565b6040516020016126399291906142ae565b6040516020818303038152906040526040517f08c379a000000000000000000000000000000000000000000000000000000000815260040161267b91906142e8565b60405180910390fd5b5050565b600060019054906101000a900460ff166126d7576040517f08c379a00000000000000000000000000000000000000000000000000000000081526004016126ce906141ba565b60405180910390fd5b6001609781905550565b60606127078273ffffffffffffffffffffffffffffffffffffffff16601460ff1661270e565b9050919050565b6060600060028360026127219190614339565b61272b919061437b565b67ffffffffffffffff811115612744576127436134d9565b5b6040519080825280601f01601f1916602001820160405280156127765781602001600182028036833780820191505090505b5090507f3000000000000000000000000000000000000000000000000000000000000000816000815181106127ae576127ad6143af565b5b60200101907effffffffffffffffffffffffffffffffffffffffffffffffffffffffffffff1916908160001a9053507f780000000000000000000000000000000000000000000000000000000000000081600181518110612812576128116143af565b5b60200101907effffffffffffffffffffffffffffffffffffffffffffffffffffffffffffff1916908160001a905350600060018460026128529190614339565b61285c919061437b565b90505b60018111156128fc577f3031323334353637383961626364656600000000000000000000000000000000600f86166010811061289e5761289d6143af565b5b1a60f81b8282815181106128b5576128b46143af565b5b60200101907effffffffffffffffffffffffffffffffffffffffffffffffffffffffffffff1916908160001a905350600485901c9450806128f5906143de565b905061285f565b5060008414612940576040517f08c379a000000000000000000000000000000000000000000000000000000000815260040161293790614453565b60405180910390fd5b8091505092915050565b828054828255906000526020600020908101928215612986579160200282015b8281111561298557823582559160200191906001019061296a565b5b5090506129939190612a90565b5090565b8280548282559060005260206000209081019282156129df579160200282015b828111156129de5782518290816129ce9190614473565b50916020019190600101906129b7565b5b5090506129ec9190612aad565b5090565b828054828255906000526020600020908101928215612a7f579160200282015b82811115612a7e57823573ffffffffffffffffffffffffffffffffffffffff168260006101000a81548173ffffffffffffffffffffffffffffffffffffffff021916908373ffffffffffffffffffffffffffffffffffffffff16021790555091602001919060010190612a10565b5b509050612a8c9190612a90565b5090565b5b80821115612aa9576000816000905550600101612a91565b5090565b5b80821115612acd5760008181612ac49190612ad1565b50600101612aae565b5090565b508054612add90613ba4565b6000825580601f10612aef5750612b0e565b601f016020900490600052602060002090810190612b0d9190612a90565b5b50565b6000604051905090565b600080fd5b600080fd5b600073ffffffffffffffffffffffffffffffffffffffff82169050919050565b6000612b5082612b25565b9050919050565b612b6081612b45565b8114612b6b57600080fd5b50565b600081359050612b7d81612b57565b92915050565b600060208284031215612b9957612b98612b1b565b5b6000612ba784828501612b6e565b91505092915050565b612bb981612b45565b82525050565b6000602082019050612bd46000830184612bb0565b92915050565b60007fffffffff0000000000000000000000000000000000000000000000000000000082169050919050565b612c0f81612bda565b8114612c1a57600080fd5b50565b600081359050612c2c81612c06565b92915050565b600060208284031215612c4857612c47612b1b565b5b6000612c5684828501612c1d565b91505092915050565b60008115159050919050565b612c7481612c5f565b82525050565b6000602082019050612c8f6000830184612c6b565b92915050565b6000819050919050565b612ca881612c95565b8114612cb357600080fd5b50565b600081359050612cc581612c9f565b92915050565b600060208284031215612ce157612ce0612b1b565b5b6000612cef84828501612cb6565b91505092915050565b6000819050919050565b612d0b81612cf8565b8114612d1657600080fd5b50565b600081359050612d2881612d02565b92915050565b600060208284031215612d4457612d43612b1b565b5b6000612d5284828501612d19565b91505092915050565b612d6481612cf8565b82525050565b6000602082019050612d7f6000830184612d5b565b92915050565b60008060408385031215612d9c57612d9b612b1b565b5b6000612daa85828601612d19565b9250506020612dbb85828601612b6e565b9150509250929050565b600080fd5b600080fd5b600080fd5b60008083601f840112612dea57612de9612dc5565b5b8235905067ffffffffffffffff811115612e0757612e06612dca565b5b602083019150836020820283011115612e2357612e22612dcf565b5b9250929050565b60008083601f840112612e4057612e3f612dc5565b5b8235905067ffffffffffffffff811115612e5d57612e5c612dca565b5b602083019150836001820283011115612e7957612e78612dcf565b5b9250929050565b60008060008060008060006080888a031215612e9f57612e9e612b1b565b5b6000612ead8a828b01612cb6565b975050602088013567ffffffffffffffff811115612ece57612ecd612b20565b5b612eda8a828b01612dd4565b9650965050604088013567ffffffffffffffff811115612efd57612efc612b20565b5b612f098a828b01612e2a565b9450945050606088013567ffffffffffffffff811115612f2c57612f2b612b20565b5b612f388a828b01612e2a565b925092505092959891949750929550565b612f5281612c95565b82525050565b600081519050919050565b600082825260208201905092915050565b60005b83811015612f92578082015181840152602081019050612f77565b60008484015250505050565b6000601f19601f8301169050919050565b6000612fba82612f58565b612fc48185612f63565b9350612fd4818560208601612f74565b612fdd81612f9e565b840191505092915050565b6000604082019050612ffd6000830185612f49565b818103602083015261300f8184612faf565b90509392505050565b6000806040838503121561302f5761302e612b1b565b5b600061303d85828601612cb6565b925050602061304e85828601612cb6565b9150509250929050565b600081519050919050565b600082825260208201905092915050565b6000819050602082019050919050565b600082825260208201905092915050565b60006130a082612f58565b6130aa8185613084565b93506130ba818560208601612f74565b6130c381612f9e565b840191505092915050565b60006130da8383613095565b905092915050565b6000602082019050919050565b60006130fa82613058565b6131048185613063565b93508360208202850161311685613074565b8060005b85811015613152578484038952815161313385826130ce565b945061313e836130e2565b925060208a0199505060018101905061311a565b50829750879550505050505092915050565b6000602082019050818103600083015261317e81846130ef565b905092915050565b60008060006040848603121561319f5761319e612b1b565b5b60006131ad86828701612b6e565b935050602084013567ffffffffffffffff8111156131ce576131cd612b20565b5b6131da86828701612e2a565b92509250509250925092565b600080604083850312156131fd576131fc612b1b565b5b600061320b85828601612b6e565b925050602061321c85828601612cb6565b9150509250929050565b600060208201905061323b6000830184612f49565b92915050565b6000806040838503121561325857613257612b1b565b5b600061326685828601612cb6565b925050602061327785828601612b6e565b9150509250929050565b6000608082019050818103600083015261329b8187612faf565b905081810360208301526132af8186612faf565b90506132be6040830185612bb0565b6132cb6060830184612c6b565b95945050505050565b600081519050919050565b600082825260208201905092915050565b6000819050602082019050919050565b61330981612c95565b82525050565b600061331b8383613300565b60208301905092915050565b6000602082019050919050565b600061333f826132d4565b61334981856132df565b9350613354836132f0565b8060005b8381101561338557815161336c888261330f565b975061337783613327565b925050600181019050613358565b5085935050505092915050565b600060208201905081810360008301526133ac8184613334565b905092915050565b60006080820190506133c96000830187612f49565b6133d66020830186612f49565b6133e36040830185612bb0565b6133f06060830184612c6b565b95945050505050565b600081519050919050565b600082825260208201905092915050565b6000819050602082019050919050565b61342e81612b45565b82525050565b60006134408383613425565b60208301905092915050565b6000602082019050919050565b6000613464826133f9565b61346e8185613404565b935061347983613415565b8060005b838110156134aa5781516134918882613434565b975061349c8361344c565b92505060018101905061347d565b5085935050505092915050565b600060208201905081810360008301526134d18184613459565b905092915050565b7f4e487b7100000000000000000000000000000000000000000000000000000000600052604160045260246000fd5b61351182612f9e565b810181811067ffffffffffffffff821117156135305761352f6134d9565b5b80604052505050565b6000613543612b11565b905061354f8282613508565b919050565b600067ffffffffffffffff82111561356f5761356e6134d9565b5b602082029050602081019050919050565b600080fd5b600067ffffffffffffffff8211156135a05761359f6134d9565b5b6135a982612f9e565b9050602081019050919050565b82818337600083830152505050565b60006135d86135d384613585565b613539565b9050828152602081018484840111156135f4576135f3613580565b5b6135ff8482856135b6565b509392505050565b600082601f83011261361c5761361b612dc5565b5b813561362c8482602086016135c5565b91505092915050565b600061364861364384613554565b613539565b9050808382526020820190506020840283018581111561366b5761366a612dcf565b5b835b818110156136b257803567ffffffffffffffff8111156136905761368f612dc5565b5b80860161369d8982613607565b8552602085019450505060208101905061366d565b5050509392505050565b600082601f8301126136d1576136d0612dc5565b5b81356136e1848260208601613635565b91505092915050565b60008083601f840112613700576136ff612dc5565b5b8235905067ffffffffffffffff81111561371d5761371c612dca565b5b60208301915083602082028301111561373957613738612dcf565b5b9250929050565b600080600080600080600060c0888a03121561375f5761375e612b1b565b5b600061376d8a828b01612cb6565b975050602088013567ffffffffffffffff81111561378e5761378d612b20565b5b61379a8a828b016136bc565b965050604088013567ffffffffffffffff8111156137bb576137ba612b20565b5b6137c78a828b016136ea565b9550955050606088013567ffffffffffffffff8111156137ea576137e9612b20565b5b6137f68a828b016136bc565b93505060806138078a828b01612cb6565b92505060a06138188a828b01612cb6565b91505092959891949750929550565b7f4e6f7420746865206275636b6574206f776e6572000000000000000000000000600082015250565b600061385d601483612f63565b915061386882613827565b602082019050919050565b6000602082019050818103600083015261388c81613850565b9050919050565b7f4d61696e20616c726561647920626f6e64656400000000000000000000000000600082015250565b60006138c9601383612f63565b91506138d482613893565b602082019050919050565b600060208201905081810360008301526138f8816138bc565b9050919050565b7f41504920616c726561647920626f6e6465640000000000000000000000000000600082015250565b6000613935601283612f63565b9150613940826138ff565b602082019050919050565b6000602082019050818103600083015261396481613928565b9050919050565b7f41504920616464726573732075736564206173206d61696e0000000000000000600082015250565b60006139a1601883612f63565b91506139ac8261396b565b602082019050919050565b600060208201905081810360008301526139d081613994565b9050919050565b7f4d61696e20616464726573732075736564206173204150490000000000000000600082015250565b6000613a0d601883612f63565b9150613a18826139d7565b602082019050919050565b60006020820190508181036000830152613a3c81613a00565b9050919050565b6000604082019050613a586000830185612bb0565b613a656020830184612bb0565b9392505050565b7f416363657373436f6e74726f6c3a2063616e206f6e6c792072656e6f756e636560008201527f20726f6c657320666f722073656c660000000000000000000000000000000000602082015250565b6000613ac8602f83612f63565b9150613ad382613a6c565b604082019050919050565b60006020820190508181036000830152613af781613abb565b9050919050565b7f4275636b657420494420616c7265616479207573656400000000000000000000600082015250565b6000613b34601683612f63565b9150613b3f82613afe565b602082019050919050565b60006020820190508181036000830152613b6381613b27565b9050919050565b600082905092915050565b7f4e487b7100000000000000000000000000000000000000000000000000000000600052602260045260246000fd5b60006002820490506001821680613bbc57607f821691505b602082108103613bcf57613bce613b75565b5b50919050565b60008190508160005260206000209050919050565b60006020601f8301049050919050565b600082821b905092915050565b600060088302613c377fffffffffffffffffffffffffffffffffffffffffffffffffffffffffffffffff82613bfa565b613c418683613bfa565b95508019841693508086168417925050509392505050565b6000819050919050565b6000613c7e613c79613c7484612c95565b613c59565b612c95565b9050919050565b6000819050919050565b613c9883613c63565b613cac613ca482613c85565b848454613c07565b825550505050565b600090565b613cc1613cb4565b613ccc818484613c8f565b505050565b5b81811015613cf057613ce5600082613cb9565b600181019050613cd2565b5050565b601f821115613d3557613d0681613bd5565b613d0f84613bea565b81016020851015613d1e578190505b613d32613d2a85613bea565b830182613cd1565b50505b505050565b600082821c905092915050565b6000613d5860001984600802613d3a565b1980831691505092915050565b6000613d718383613d47565b9150826002028217905092915050565b613d8b8383613b6a565b67ffffffffffffffff811115613da457613da36134d9565b5b613dae8254613ba4565b613db9828285613cf4565b6000601f831160018114613de85760008415613dd6578287013590505b613de08582613d65565b865550613e48565b601f198416613df686613bd5565b60005b82811015613e1e57848901358255600182019150602085019450602081019050613df9565b86831015613e3b5784890135613e37601f891682613d47565b8355505b6001600288020188555050505b50505050505050565b6000604082019050613e666000830185612f49565b613e736020830184612bb0565b9392505050565b7f4275636b65742069732064656163746976617465640000000000000000000000600082015250565b6000613eb0601583612f63565b9150613ebb82613e7a565b602082019050919050565b60006020820190508181036000830152613edf81613ea3565b9050919050565b6000604082019050613efb6000830185612f49565b613f086020830184612f49565b9392505050565b7f496e697469616c697a61626c653a20636f6e747261637420697320616c72656160008201527f647920696e697469616c697a6564000000000000000000000000000000000000602082015250565b6000613f6b602e83612f63565b9150613f7682613f0f565b604082019050919050565b60006020820190508181036000830152613f9a81613f5e565b9050919050565b6000819050919050565b600060ff82169050919050565b6000613fd3613fce613fc984613fa1565b613c59565b613fab565b9050919050565b613fe381613fb8565b82525050565b6000602082019050613ffe6000830184613fda565b92915050565b7f4e6f742074686520706f6c696379206f776e6572000000000000000000000000600082015250565b600061403a601483612f63565b915061404582614004565b602082019050919050565b600060208201905081810360008301526140698161402d565b9050919050565b7f506f6c6963792069732064656163746976617465640000000000000000000000600082015250565b60006140a6601583612f63565b91506140b182614070565b602082019050919050565b600060208201905081810360008301526140d581614099565b9050919050565b7f506f6c69637920494420616c7265616479207573656400000000000000000000600082015250565b6000614112601683612f63565b915061411d826140dc565b602082019050919050565b6000602082019050818103600083015261414181614105565b9050919050565b7f496e697469616c697a61626c653a20636f6e7472616374206973206e6f74206960008201527f6e697469616c697a696e67000000000000000000000000000000000000000000602082015250565b60006141a4602b83612f63565b91506141af82614148565b604082019050919050565b600060208201905081810360008301526141d381614197565b9050919050565b600081905092915050565b7f416363657373436f6e74726f6c3a206163636f756e7420000000000000000000600082015250565b600061421b6017836141da565b9150614226826141e5565b601782019050919050565b600061423c82612f58565b61424681856141da565b9350614256818560208601612f74565b80840191505092915050565b7f206973206d697373696e6720726f6c6520000000000000000000000000000000600082015250565b60006142986011836141da565b91506142a382614262565b601182019050919050565b60006142b98261420e565b91506142c58285614231565b91506142d08261428b565b91506142dc8284614231565b91508190509392505050565b600060208201905081810360008301526143028184612faf565b905092915050565b7f4e487b7100000000000000000000000000000000000000000000000000000000600052601160045260246000fd5b600061434482612c95565b915061434f83612c95565b925082820261435d81612c95565b915082820484148315176143745761437361430a565b5b5092915050565b600061438682612c95565b915061439183612c95565b92508282019050808211156143a9576143a861430a565b5b92915050565b7f4e487b7100000000000000000000000000000000000000000000000000000000600052603260045260246000fd5b60006143e982612c95565b9150600082036143fc576143fb61430a565b5b600182039050919050565b7f537472696e67733a20686578206c656e67746820696e73756666696369656e74600082015250565b600061443d602083612f63565b915061444882614407565b602082019050919050565b6000602082019050818103600083015261446c81614430565b9050919050565b61447c82612f58565b67ffffffffffffffff811115614495576144946134d9565b5b61449f8254613ba4565b6144aa828285613cf4565b600060209050601f8311600181146144dd57600084156144cb578287015190505b6144d58582613d65565b86555061453d565b601f1984166144eb86613bd5565b60005b82811015614513578489015182556001820191506020850194506020810190506144ee565b86831015614530578489015161452c601f891682613d47565b8355505b6001600288020188555050505b50505050505056fea2646970667358221220ae00213a8e3fa30fdb0e964d4b7e0de7aa128ad2d1b08ce3182903c206782df664736f6c63430008130033",
  "linkReferences": {},
  "deployedLinkReferences": {}
}